{
  "_format": "hh-sol-artifact-1",
  "contractName": "AutomatedTithe",
  "sourceName": "contracts/steward/AutomatedTithe.sol",
  "abi": [
    {
      "inputs": [
        {
          "internalType": "address payable",
          "name": "_trigCore",
          "type": "address"
        },
        {
          "internalType": "address payable",
          "name": "_oracleRegistry",
          "type": "address"
        },
        {
          "internalType": "address",
          "name": "initialOwner",
          "type": "address"
        }
      ],
      "stateMutability": "nonpayable",
      "type": "constructor"
    },
    {
      "inputs": [],
      "name": "EnforcedPause",
      "type": "error"
    },
    {
      "inputs": [],
      "name": "ExpectedPause",
      "type": "error"
    },
    {
      "inputs": [
        {
          "internalType": "address",
          "name": "owner",
          "type": "address"
        }
      ],
      "name": "OwnableInvalidOwner",
      "type": "error"
    },
    {
      "inputs": [
        {
          "internalType": "address",
          "name": "account",
          "type": "address"
        }
      ],
      "name": "OwnableUnauthorizedAccount",
      "type": "error"
    },
    {
      "inputs": [],
      "name": "ReentrancyGuardReentrantCall",
      "type": "error"
    },
    {
      "inputs": [
        {
          "internalType": "address",
          "name": "token",
          "type": "address"
        }
      ],
      "name": "SafeERC20FailedOperation",
      "type": "error"
    },
    {
      "anonymous": false,
      "inputs": [
        {
          "indexed": true,
          "internalType": "uint256",
          "name": "commitmentId",
          "type": "uint256"
        },
        {
          "indexed": true,
          "internalType": "address",
          "name": "giver",
          "type": "address"
        }
      ],
      "name": "CommitmentCancelled",
      "type": "event"
    },
    {
      "anonymous": false,
      "inputs": [
        {
          "indexed": true,
          "internalType": "uint256",
          "name": "commitmentId",
          "type": "uint256"
        },
        {
          "indexed": false,
          "internalType": "uint256",
          "name": "totalPaid",
          "type": "uint256"
        },
        {
          "indexed": false,
          "internalType": "uint256",
          "name": "paymentCount",
          "type": "uint256"
        }
      ],
      "name": "CommitmentCompleted",
      "type": "event"
    },
    {
      "anonymous": false,
      "inputs": [
        {
          "indexed": true,
          "internalType": "uint256",
          "name": "commitmentId",
          "type": "uint256"
        },
        {
          "indexed": true,
          "internalType": "address",
          "name": "giver",
          "type": "address"
        },
        {
          "indexed": true,
          "internalType": "address",
          "name": "organization",
          "type": "address"
        },
        {
          "indexed": false,
          "internalType": "uint256",
          "name": "amount",
          "type": "uint256"
        },
        {
          "indexed": false,
          "internalType": "enum AutomatedTithe.TitheFrequency",
          "name": "frequency",
          "type": "uint8"
        }
      ],
      "name": "CommitmentCreated",
      "type": "event"
    },
    {
      "anonymous": false,
      "inputs": [
        {
          "indexed": true,
          "internalType": "uint256",
          "name": "commitmentId",
          "type": "uint256"
        },
        {
          "indexed": true,
          "internalType": "address",
          "name": "giver",
          "type": "address"
        }
      ],
      "name": "CommitmentPaused",
      "type": "event"
    },
    {
      "anonymous": false,
      "inputs": [
        {
          "indexed": true,
          "internalType": "uint256",
          "name": "commitmentId",
          "type": "uint256"
        },
        {
          "indexed": true,
          "internalType": "address",
          "name": "giver",
          "type": "address"
        }
      ],
      "name": "CommitmentResumed",
      "type": "event"
    },
    {
      "anonymous": false,
      "inputs": [
        {
          "indexed": true,
          "internalType": "address",
          "name": "previousOwner",
          "type": "address"
        },
        {
          "indexed": true,
          "internalType": "address",
          "name": "newOwner",
          "type": "address"
        }
      ],
      "name": "OwnershipTransferred",
      "type": "event"
    },
    {
      "anonymous": false,
      "inputs": [
        {
          "indexed": false,
          "internalType": "address",
          "name": "account",
          "type": "address"
        }
      ],
      "name": "Paused",
      "type": "event"
    },
    {
      "anonymous": false,
      "inputs": [
        {
          "indexed": true,
          "internalType": "uint256",
          "name": "commitmentId",
          "type": "uint256"
        },
        {
          "indexed": true,
          "internalType": "address",
          "name": "giver",
          "type": "address"
        },
        {
          "indexed": true,
          "internalType": "address",
          "name": "organization",
          "type": "address"
        },
        {
          "indexed": false,
          "internalType": "uint256",
          "name": "amount",
          "type": "uint256"
        },
        {
          "indexed": false,
          "internalType": "uint256",
          "name": "paymentNumber",
          "type": "uint256"
        }
      ],
      "name": "TithePaid",
      "type": "event"
    },
    {
      "anonymous": false,
      "inputs": [
        {
          "indexed": false,
          "internalType": "address",
          "name": "account",
          "type": "address"
        }
      ],
      "name": "Unpaused",
      "type": "event"
    },
    {
      "inputs": [
        {
          "internalType": "uint256",
          "name": "commitmentId",
          "type": "uint256"
        }
      ],
      "name": "cancelCommitment",
      "outputs": [],
      "stateMutability": "nonpayable",
      "type": "function"
    },
    {
      "inputs": [],
      "name": "commitmentCounter",
      "outputs": [
        {
          "internalType": "uint256",
          "name": "",
          "type": "uint256"
        }
      ],
      "stateMutability": "view",
      "type": "function"
    },
    {
      "inputs": [
        {
          "internalType": "uint256",
          "name": "",
          "type": "uint256"
        }
      ],
      "name": "commitments",
      "outputs": [
        {
          "internalType": "uint256",
          "name": "commitmentId",
          "type": "uint256"
        },
        {
          "internalType": "address",
          "name": "giver",
          "type": "address"
        },
        {
          "internalType": "address",
          "name": "organization",
          "type": "address"
        },
        {
          "internalType": "uint256",
          "name": "amount",
          "type": "uint256"
        },
        {
          "internalType": "address",
          "name": "token",
          "type": "address"
        },
        {
          "internalType": "enum AutomatedTithe.TitheFrequency",
          "name": "frequency",
          "type": "uint8"
        },
        {
          "internalType": "uint256",
          "name": "startTime",
          "type": "uint256"
        },
        {
          "internalType": "uint256",
          "name": "endTime",
          "type": "uint256"
        },
        {
          "internalType": "uint256",
          "name": "lastPaymentTime",
          "type": "uint256"
        },
        {
          "internalType": "uint256",
          "name": "totalPaid",
          "type": "uint256"
        },
        {
          "internalType": "uint256",
          "name": "paymentCount",
          "type": "uint256"
        },
        {
          "internalType": "enum AutomatedTithe.TitheStatus",
          "name": "status",
          "type": "uint8"
        },
        {
          "internalType": "uint256",
          "name": "trigConditionId",
          "type": "uint256"
        }
      ],
      "stateMutability": "view",
      "type": "function"
    },
    {
      "inputs": [
        {
          "internalType": "address",
          "name": "organization",
          "type": "address"
        },
        {
          "internalType": "uint256",
          "name": "amount",
          "type": "uint256"
        },
        {
          "internalType": "address",
          "name": "token",
          "type": "address"
        },
        {
          "internalType": "enum AutomatedTithe.TitheFrequency",
          "name": "frequency",
          "type": "uint8"
        },
        {
          "internalType": "uint256",
          "name": "endTime",
          "type": "uint256"
        }
      ],
      "name": "createCommitment",
      "outputs": [
        {
          "internalType": "uint256",
          "name": "",
          "type": "uint256"
        }
      ],
      "stateMutability": "payable",
      "type": "function"
    },
    {
      "inputs": [
        {
          "internalType": "uint256",
          "name": "commitmentId",
          "type": "uint256"
        }
      ],
      "name": "executeTithePayment",
      "outputs": [],
      "stateMutability": "payable",
      "type": "function"
    },
    {
      "inputs": [
        {
          "internalType": "uint256",
          "name": "commitmentId",
          "type": "uint256"
        }
      ],
      "name": "getCommitment",
      "outputs": [
        {
          "internalType": "address",
          "name": "giver",
          "type": "address"
        },
        {
          "internalType": "address",
          "name": "organization",
          "type": "address"
        },
        {
          "internalType": "uint256",
          "name": "amount",
          "type": "uint256"
        },
        {
          "internalType": "address",
          "name": "token",
          "type": "address"
        },
        {
          "internalType": "enum AutomatedTithe.TitheFrequency",
          "name": "frequency",
          "type": "uint8"
        },
        {
          "internalType": "uint256",
          "name": "startTime",
          "type": "uint256"
        },
        {
          "internalType": "uint256",
          "name": "endTime",
          "type": "uint256"
        },
        {
          "internalType": "uint256",
          "name": "lastPaymentTime",
          "type": "uint256"
        },
        {
          "internalType": "uint256",
          "name": "totalPaid",
          "type": "uint256"
        },
        {
          "internalType": "uint256",
          "name": "paymentCount",
          "type": "uint256"
        },
        {
          "internalType": "enum AutomatedTithe.TitheStatus",
          "name": "status",
          "type": "uint8"
        }
      ],
      "stateMutability": "view",
      "type": "function"
    },
    {
      "inputs": [
        {
          "internalType": "address",
          "name": "giver",
          "type": "address"
        }
      ],
      "name": "getGiverCommitments",
      "outputs": [
        {
          "internalType": "uint256[]",
          "name": "",
          "type": "uint256[]"
        }
      ],
      "stateMutability": "view",
      "type": "function"
    },
    {
      "inputs": [
        {
          "internalType": "uint256",
          "name": "commitmentId",
          "type": "uint256"
        }
      ],
      "name": "getNextPaymentTime",
      "outputs": [
        {
          "internalType": "uint256",
          "name": "",
          "type": "uint256"
        }
      ],
      "stateMutability": "view",
      "type": "function"
    },
    {
      "inputs": [
        {
          "internalType": "address",
          "name": "organization",
          "type": "address"
        }
      ],
      "name": "getOrganizationCommitments",
      "outputs": [
        {
          "internalType": "uint256[]",
          "name": "",
          "type": "uint256[]"
        }
      ],
      "stateMutability": "view",
      "type": "function"
    },
    {
      "inputs": [
        {
          "internalType": "address",
          "name": "",
          "type": "address"
        },
        {
          "internalType": "uint256",
          "name": "",
          "type": "uint256"
        }
      ],
      "name": "giverCommitments",
      "outputs": [
        {
          "internalType": "uint256",
          "name": "",
          "type": "uint256"
        }
      ],
      "stateMutability": "view",
      "type": "function"
    },
    {
      "inputs": [
        {
          "internalType": "uint256",
          "name": "commitmentId",
          "type": "uint256"
        }
      ],
      "name": "isPaymentDue",
      "outputs": [
        {
          "internalType": "bool",
          "name": "",
          "type": "bool"
        }
      ],
      "stateMutability": "view",
      "type": "function"
    },
    {
      "inputs": [],
      "name": "oracleRegistry",
      "outputs": [
        {
          "internalType": "contract StewardOracleRegistry",
          "name": "",
          "type": "address"
        }
      ],
      "stateMutability": "view",
      "type": "function"
    },
    {
      "inputs": [
        {
          "internalType": "address",
          "name": "",
          "type": "address"
        },
        {
          "internalType": "uint256",
          "name": "",
          "type": "uint256"
        }
      ],
      "name": "organizationCommitments",
      "outputs": [
        {
          "internalType": "uint256",
          "name": "",
          "type": "uint256"
        }
      ],
      "stateMutability": "view",
      "type": "function"
    },
    {
      "inputs": [],
      "name": "owner",
      "outputs": [
        {
          "internalType": "address",
          "name": "",
          "type": "address"
        }
      ],
      "stateMutability": "view",
      "type": "function"
    },
    {
      "inputs": [],
      "name": "pause",
      "outputs": [],
      "stateMutability": "nonpayable",
      "type": "function"
    },
    {
      "inputs": [
        {
          "internalType": "uint256",
          "name": "commitmentId",
          "type": "uint256"
        }
      ],
      "name": "pauseCommitment",
      "outputs": [],
      "stateMutability": "nonpayable",
      "type": "function"
    },
    {
      "inputs": [],
      "name": "paused",
      "outputs": [
        {
          "internalType": "bool",
          "name": "",
          "type": "bool"
        }
      ],
      "stateMutability": "view",
      "type": "function"
    },
    {
      "inputs": [],
      "name": "renounceOwnership",
      "outputs": [],
      "stateMutability": "nonpayable",
      "type": "function"
    },
    {
      "inputs": [
        {
          "internalType": "uint256",
          "name": "commitmentId",
          "type": "uint256"
        }
      ],
      "name": "resumeCommitment",
      "outputs": [],
      "stateMutability": "nonpayable",
      "type": "function"
    },
    {
      "inputs": [],
      "name": "totalAmountGiven",
      "outputs": [
        {
          "internalType": "uint256",
          "name": "",
          "type": "uint256"
        }
      ],
      "stateMutability": "view",
      "type": "function"
    },
    {
      "inputs": [],
      "name": "totalPaymentsProcessed",
      "outputs": [
        {
          "internalType": "uint256",
          "name": "",
          "type": "uint256"
        }
      ],
      "stateMutability": "view",
      "type": "function"
    },
    {
      "inputs": [
        {
          "internalType": "address",
          "name": "newOwner",
          "type": "address"
        }
      ],
      "name": "transferOwnership",
      "outputs": [],
      "stateMutability": "nonpayable",
      "type": "function"
    },
    {
      "inputs": [],
      "name": "trigCore",
      "outputs": [
        {
          "internalType": "contract TrigImmutableCore",
          "name": "",
          "type": "address"
        }
      ],
      "stateMutability": "view",
      "type": "function"
    },
    {
      "inputs": [],
      "name": "unpause",
      "outputs": [],
      "stateMutability": "nonpayable",
      "type": "function"
    },
    {
      "stateMutability": "payable",
      "type": "receive"
    }
  ],
  "bytecode": "0x60c034620001a657601f6200192d38819003918201601f191683019291906001600160401b03841183851017620001ab578160609284926040968752833981010312620001a6576200005181620001c1565b826200006060208401620001c1565b9201516001600160a01b038082169390929091849003620001a65783156200018e57600080546001600160a01b031981168617825586519585939290918416907f8be0079c531659141344cd1fd0a4f28419497f9722a3daafe3b4186f6b6457e09080a360018055169283156200014c575016908115620001085760805260a052516117569081620001d7823960805181610329015260a0518181816107e60152610a090152f35b825162461bcd60e51b815260206004820152601e60248201527f496e76616c6964204f7261636c655265676973747279206164647265737300006044820152606490fd5b62461bcd60e51b815260206004820152601860248201527f496e76616c69642054726967436f7265206164647265737300000000000000006044820152606490fd5b8451631e4fbdf760e01b815260006004820152602490fd5b600080fd5b634e487b7160e01b600052604160045260246000fd5b51906001600160a01b0382168203620001a65756fe6080604052600436101561001b575b361561001957600080fd5b005b60003560e01c806302fb69dd14610f4d5780631882f2cb14610e8e57806323e281cf14610e705780632917646b1461099e57806337e32d1d146109805780633f4ba83a1461090e57806349ce8997146108335780634a22f057146108155780634bb93ab1146107d05780634d5f464c1461077757806352b1a8f7146106b85780635c975abb1461069257806362b91bfb1461061757806369bcdb7d1461053b578063715018a6146104e2578063840a1ff4146104095780638456cb59146103a757806386f195b8146103815780638da5cb5b146103585780639862ced814610313578063d257ea43146102bb578063e816e87f14610246578063edcf8778146101bb5763f2fde38b0361000e57346101b65760203660031901126101b6576101416110d4565b610149611698565b6001600160a01b0390811690811561019d57600054826bffffffffffffffffffffffff60a01b821617600055167f8be0079c531659141344cd1fd0a4f28419497f9722a3daafe3b4186f6b6457e0600080a3005b604051631e4fbdf760e01b815260006004820152602490fd5b600080fd5b346101b6576020806003193601126101b6576001600160a01b036101dd6110d4565b1660005260046020526040600020906040519081602084549182815201936000526020600020916000905b82821061022f5761022b8561021f818903826111ad565b60405191829182611132565b0390f35b835486529485019460019384019390910190610208565b346101b65760203660031901126101b657600435600052600260205261026f60406000206111cf565b6101608101519060048210156102a557602091159081610295575b506040519015158152f35b61029f91506113bc565b8261028a565b634e487b7160e01b600052602160045260246000fd5b346101b65760403660031901126101b6576102d46110d4565b6001600160a01b03166000908152600460205260409020805460243591908210156101b65760209161030591611104565b90546040519160031b1c8152f35b346101b65760003660031901126101b6576040517f00000000000000000000000000000000000000000000000000000000000000006001600160a01b03168152602090f35b346101b65760003660031901126101b6576000546040516001600160a01b039091168152602090f35b346101b65760203660031901126101b657602061039f60043561132c565b604051908152f35b346101b65760003660031901126101b6576103c0611698565b6103c861139b565b6000805460ff60a01b1916600160a01b1790556040513381527f62e78cea01bee320cd4e420270b5ea74000d11b0c9f74754ebdbfc544b05a25890602090a1005b346101b65760203660031901126101b657600435610425611378565b806000526002602052600a604060002061044c60018060a01b036001830154163314611284565b01805460ff811660048110156102a55780159081156104d7575b50156104a25760ff1916600217905533907ffe2408fac51843f3c3512ef2fc3411826b6d230e6100eccba2029d663071d21d600080a360018055005b60405162461bcd60e51b815260206004820152600d60248201526c10d85b9b9bdd0818d85b98d95b609a1b6044820152606490fd5b600191501484610466565b346101b65760003660031901126101b6576104fb611698565b600080546001600160a01b0319811682556001600160a01b03167f8be0079c531659141344cd1fd0a4f28419497f9722a3daafe3b4186f6b6457e08280a3005b346101b65760203660031901126101b657600435600052600260205261056460406000206111cf565b60018060a01b038060208301511690806040840151166060840151916080850151169360a08101519160058310156102a55760c082015160e083015161010084015191610120850151936101606101408701519601519660048810156102a5576101609a610615996105ef936040519c8d5260208d015260408c015260608b015260808a01906110ea565b60a088015260c087015260e08601526101008501526101208401526101408301906110f7565bf35b346101b6576020806003193601126101b6576001600160a01b036106396110d4565b1660005260036020526040600020906040519081602084549182815201936000526020600020916000905b82821061067b5761022b8561021f818903826111ad565b835486529485019460019384019390910190610664565b346101b65760003660031901126101b657602060ff60005460a01c166040519015158152f35b346101b65760203660031901126101b6576004356106d4611378565b806000526002602052600a60406000206106fb60018060a01b036001830154163314611284565b01805460ff811660048110156102a5576001036107455760ff1916905533907f74ddf1ad22eb09418c7a7aeeed802963286cf7be4113e8d56074308de2f9e55e600080a360018055005b60405162461bcd60e51b815260206004820152600a602482015269139bdd081c185d5cd95960b21b6044820152606490fd5b346101b65760403660031901126101b6576107906110d4565b6001600160a01b03166000908152600360205260409020805460243591908210156101b6576020916107c191611104565b90549060031b1c604051908152f35b346101b65760003660031901126101b6576040517f00000000000000000000000000000000000000000000000000000000000000006001600160a01b03168152602090f35b346101b65760003660031901126101b6576020600654604051908152f35b346101b65760203660031901126101b65760043560005260026020526040600020805490600160a01b60019003908160018201541691806002830154169060038301549060048401546005850154600686015491600787015493600888015495600989015497600a8a015460ff1699600b01549a6040519c8d5260208d015260408c015260608b0152811660808a015260a089019060a01c60ff16906108d8916110ea565b60c088015260e08701526101008601526101208501526101408401526101608301610902916110f7565b6101808201526101a090f35b346101b65760003660031901126101b657610927611698565b60005460ff8160a01c161561096e5760ff60a01b19166000556040513381527f5db9ee0a495bf2e6ff9c91a7834c1ba4fdd244a5e8aa4e537bd38aeae4b073aa90602090a1005b604051638dfc202b60e01b8152600490fd5b346101b65760003660031901126101b6576020600754604051908152f35b60a03660031901126101b6576109b26110d4565b6044356001600160a01b03811681036101b657600560643510156101b6576109d8611378565b6109e061139b565b604051634efeb53b60e11b81526001600160a01b038381166004830152602090829060249082907f0000000000000000000000000000000000000000000000000000000000000000165afa908115610e6457600091610e29575b5015610de45760243515610d9f57608435158015610d94575b15610d4f576001600160a01b038116610cf9576024353403610cb4575b60055490610a7d826112c0565b60055560405192610a8d8461117a565b8284523360208501526001600160a01b038181166040860152602435606086015282166080850152610ac460643560a0860161116e565b4260c085015260843560e0850152600061010085015260006101208501526000610140850152600061016085015260006101808501528260005260026020526040600020845181556001810160018060a01b03602087015116906bffffffffffffffffffffffff60a01b9182825416179055600282019060018060a01b0360408801511690825416179055606085015160038201556004810160018060a01b0360808701511681549060a088015160058110156102a55760ff60a01b9060a01b16916affffffffffffffffffffff60a81b161717905560c0850151600582015560e08501516006820155610100850151600782015561012085015160088201556101408501516009820155600a810161016086015160048110156102a557602096600b926101809260ff8019835416911617905501519101553360005260038452610c138360406000206112e5565b60018060a01b03811660005260048452610c318360406000206112e5565b604051906024358252610c488583016064356110ea565b6001600160a01b031690339084907fbf37c3992c609d85f478f2b19f951c393c1c290c22cd47d2194c0aa054446f5890604090a46001600160a01b03161580610cab575b610c9d575b60018055604051908152f35b610ca68161141a565b610c91565b50341515610c8c565b60405162461bcd60e51b815260206004820152601760248201527f4d7573742073656e64206669727374207061796d656e740000000000000000006044820152606490fd5b3415610a705760405162461bcd60e51b815260206004820152602260248201527f446f206e6f742073656e642045544820666f7220746f6b656e207061796d656e604482015261747360f01b6064820152608490fd5b60405162461bcd60e51b815260206004820152601a60248201527f456e642074696d65206d75737420626520696e206675747572650000000000006044820152606490fd5b504260843511610a53565b60405162461bcd60e51b815260206004820152601d60248201527f416d6f756e74206d7573742062652067726561746572207468616e20300000006044820152606490fd5b60405162461bcd60e51b815260206004820152601960248201527f4f7267616e697a6174696f6e206e6f74207665726966696564000000000000006044820152606490fd5b90506020813d602011610e5c575b81610e44602093836111ad565b810103126101b6575180151581036101b65783610a3a565b3d9150610e37565b6040513d6000823e3d90fd5b346101b65760003660031901126101b6576020600554604051908152f35b346101b65760203660031901126101b657600435610eaa611378565b806000526002602052600a6040600020610ed160018060a01b036001830154163314611284565b01805460ff811660048110156102a557610f1b5760ff1916600117905533907fa2f75893a2f3a6836afd41a586c574a52099f47b492b047f403ba9fa13f862ee600080a360018055005b60405162461bcd60e51b815260206004820152600a6024820152694e6f742061637469766560b01b6044820152606490fd5b6020806003193601126101b65760043590610f66611378565b610f6e61139b565b8160005260028152604060002060ff600a8201541660048110156102a55761109757610fa1610f9c826111cf565b6113bc565b1561105c5760048101546001600160a01b031661101657600301543403610fd25750610fcc9061141a565b60018055005b6064906040519062461bcd60e51b82526004820152601860248201527f496e636f7272656374207061796d656e7420616d6f756e7400000000000000006044820152fd5b50346110265750610fcc9061141a565b6064906040519062461bcd60e51b82526004820152600f60248201526e088de40dcdee840e6cadcc8408aa89608b1b6044820152fd5b60405162461bcd60e51b815260048101839052601360248201527214185e5b595b9d081b9bdd08191d59481e595d606a1b6044820152606490fd5b60405162461bcd60e51b8152600481018390526015602482015274436f6d6d69746d656e74206e6f742061637469766560581b6044820152606490fd5b600435906001600160a01b03821682036101b657565b9060058210156102a55752565b9060048210156102a55752565b805482101561111c5760005260206000200190600090565b634e487b7160e01b600052603260045260246000fd5b602090602060408183019282815285518094520193019160005b82811061115a575050505090565b83518552938101939281019260010161114c565b60058210156102a55752565b6101a0810190811067ffffffffffffffff82111761119757604052565b634e487b7160e01b600052604160045260246000fd5b90601f8019910116810190811067ffffffffffffffff82111761119757604052565b906040516111dc8161117a565b80928054825261122a60ff60018060a01b03806001850154166020860152806002850154166040860152600384015460608601526004840154908116608086015260a01c1660a0840161116e565b600581015460c0830152600681015460e083015260078101546101008301526008810154610120830152600981015461014083015260ff600a8201541660048110156102a55761018091600b916101608501520154910152565b1561128b57565b60405162461bcd60e51b815260206004820152600d60248201526c2737ba103a34329033b4bb32b960991b6044820152606490fd5b60001981146112cf5760010190565b634e487b7160e01b600052601160045260246000fd5b8054680100000000000000008110156111975761130791600182018155611104565b819291549060031b91821b91600019901b1916179055565b919082018092116112cf57565b600052600260205261134160406000206111cf565b6101008101908151156113725760a001519060058210156102a55761136861136f926116c4565b905161131f565b90565b50504290565b600260015414611389576002600155565b604051633ee5aeb560e01b8152600490fd5b60ff60005460a01c166113aa57565b60405163d93c066560e01b8152600490fd5b61010081015180156114135760e08201518015159081611408575b50611401574203904282116112cf5760a0015160058110156102a5576113fc906116c4565b111590565b5050600090565b9050421015386113d7565b5050600190565b6000818152600260209081526040808320600481015490939192916001600160a01b03918216806115e45750808080808560028a01541660038a0154905af1903d156115de573d9067ffffffffffffffff82116115ca57855191611487601f8201601f19168701846111ad565b8252843d92013e5b15611591575b426007850155600384019081549160088601916114b384845461131f565b83556114d160098801946114c786546112c0565b865560065461131f565b6006556114df6007546112c0565b600755877f84e261f7e3e790b26ec51d0c413e64d984a9c8639b5468292e466d6c844c4026878360018b0154169360028b015416945496549681519081528789820152a460068501548015159081611586575b50611540575b505050505050565b600a7fc28667f69c073e0740996bf85f83d2fc2343967fbe1807a29d04c8d5d6f0e3c59501600360ff1982541617905554918351928352820152a2388080808080611538565b905042101538611532565b50606491519062461bcd60e51b825260048201526013602482015272115512081d1c985b9cd9995c8819985a5b1959606a1b6044820152fd5b634e487b7160e01b81526041600452602490fd5b5061148f565b9082600187015416836002880154166003880154875191878301936323b872dd60e01b85526024840152604483015260648201526064815260a0810181811067ffffffffffffffff82111761168457875251859183919082865af11561167957513d6116705750803b155b6116595750611495565b602490845190635274afe760e01b82526004820152fd5b6001141561164f565b8451903d90823e3d90fd5b634e487b7160e01b84526041600452602484fd5b6000546001600160a01b031633036116ac57565b60405163118cdaa760e01b8152336004820152602490fd5b60058110156102a557806116da575062093a8090565b600181036116ea57506212750090565b600281036116fa575062278d0090565b6003810361170a57506276a70090565b6004146117185762278d0090565b6301e133809056fea26469706673582212209a1e686109f373fe3feb8f489af36384bb4ace6a8c7ac9aed96bea119d1ced8364736f6c63430008160033",
  "linkReferences": {},
  "deployedLinkReferences": {}
}