{
  "_format": "hh-sol-artifact-1",
  "contractName": "MissionProtection",
  "sourceName": "contracts/steward/MissionProtection.sol",
  "abi": [
    {
      "inputs": [
        {
          "internalType": "address payable",
          "name": "_trigCore",
          "type": "address"
        },
        {
          "internalType": "address payable",
          "name": "_oracleRegistry",
          "type": "address"
        },
        {
          "internalType": "address",
          "name": "initialOwner",
          "type": "address"
        }
      ],
      "stateMutability": "nonpayable",
      "type": "constructor"
    },
    {
      "inputs": [],
      "name": "EnforcedPause",
      "type": "error"
    },
    {
      "inputs": [],
      "name": "ExpectedPause",
      "type": "error"
    },
    {
      "inputs": [
        {
          "internalType": "address",
          "name": "owner",
          "type": "address"
        }
      ],
      "name": "OwnableInvalidOwner",
      "type": "error"
    },
    {
      "inputs": [
        {
          "internalType": "address",
          "name": "account",
          "type": "address"
        }
      ],
      "name": "OwnableUnauthorizedAccount",
      "type": "error"
    },
    {
      "inputs": [],
      "name": "ReentrancyGuardReentrantCall",
      "type": "error"
    },
    {
      "anonymous": false,
      "inputs": [
        {
          "indexed": true,
          "internalType": "uint256",
          "name": "policyId",
          "type": "uint256"
        },
        {
          "indexed": true,
          "internalType": "address",
          "name": "policyholder",
          "type": "address"
        },
        {
          "indexed": false,
          "internalType": "uint256",
          "name": "payoutAmount",
          "type": "uint256"
        }
      ],
      "name": "ClaimPaid",
      "type": "event"
    },
    {
      "anonymous": false,
      "inputs": [
        {
          "indexed": true,
          "internalType": "uint256",
          "name": "policyId",
          "type": "uint256"
        },
        {
          "indexed": true,
          "internalType": "address",
          "name": "policyholder",
          "type": "address"
        },
        {
          "indexed": false,
          "internalType": "uint256",
          "name": "claimAmount",
          "type": "uint256"
        }
      ],
      "name": "ClaimSubmitted",
      "type": "event"
    },
    {
      "anonymous": false,
      "inputs": [
        {
          "indexed": true,
          "internalType": "address",
          "name": "previousOwner",
          "type": "address"
        },
        {
          "indexed": true,
          "internalType": "address",
          "name": "newOwner",
          "type": "address"
        }
      ],
      "name": "OwnershipTransferred",
      "type": "event"
    },
    {
      "anonymous": false,
      "inputs": [
        {
          "indexed": false,
          "internalType": "address",
          "name": "account",
          "type": "address"
        }
      ],
      "name": "Paused",
      "type": "event"
    },
    {
      "anonymous": false,
      "inputs": [
        {
          "indexed": true,
          "internalType": "uint256",
          "name": "policyId",
          "type": "uint256"
        },
        {
          "indexed": true,
          "internalType": "address",
          "name": "policyholder",
          "type": "address"
        },
        {
          "indexed": false,
          "internalType": "uint256",
          "name": "refundAmount",
          "type": "uint256"
        }
      ],
      "name": "PolicyCancelled",
      "type": "event"
    },
    {
      "anonymous": false,
      "inputs": [
        {
          "indexed": true,
          "internalType": "uint256",
          "name": "policyId",
          "type": "uint256"
        }
      ],
      "name": "PolicyExpired",
      "type": "event"
    },
    {
      "anonymous": false,
      "inputs": [
        {
          "indexed": true,
          "internalType": "uint256",
          "name": "policyId",
          "type": "uint256"
        },
        {
          "indexed": true,
          "internalType": "address",
          "name": "policyholder",
          "type": "address"
        },
        {
          "indexed": true,
          "internalType": "address",
          "name": "organization",
          "type": "address"
        },
        {
          "indexed": false,
          "internalType": "uint256",
          "name": "coverageAmount",
          "type": "uint256"
        },
        {
          "indexed": false,
          "internalType": "uint256",
          "name": "premium",
          "type": "uint256"
        }
      ],
      "name": "PolicyPurchased",
      "type": "event"
    },
    {
      "anonymous": false,
      "inputs": [
        {
          "indexed": false,
          "internalType": "uint256",
          "name": "oldRate",
          "type": "uint256"
        },
        {
          "indexed": false,
          "internalType": "uint256",
          "name": "newRate",
          "type": "uint256"
        }
      ],
      "name": "PremiumRateUpdated",
      "type": "event"
    },
    {
      "anonymous": false,
      "inputs": [
        {
          "indexed": false,
          "internalType": "address",
          "name": "account",
          "type": "address"
        }
      ],
      "name": "Unpaused",
      "type": "event"
    },
    {
      "inputs": [],
      "name": "accumulatedFees",
      "outputs": [
        {
          "internalType": "uint256",
          "name": "",
          "type": "uint256"
        }
      ],
      "stateMutability": "view",
      "type": "function"
    },
    {
      "inputs": [
        {
          "internalType": "uint256",
          "name": "policyId",
          "type": "uint256"
        }
      ],
      "name": "calculateCancellationRefund",
      "outputs": [
        {
          "internalType": "uint256",
          "name": "",
          "type": "uint256"
        }
      ],
      "stateMutability": "view",
      "type": "function"
    },
    {
      "inputs": [
        {
          "internalType": "uint256",
          "name": "coverageAmount",
          "type": "uint256"
        }
      ],
      "name": "calculatePremium",
      "outputs": [
        {
          "internalType": "uint256",
          "name": "",
          "type": "uint256"
        }
      ],
      "stateMutability": "view",
      "type": "function"
    },
    {
      "inputs": [
        {
          "internalType": "uint256",
          "name": "policyId",
          "type": "uint256"
        }
      ],
      "name": "cancelPolicy",
      "outputs": [],
      "stateMutability": "nonpayable",
      "type": "function"
    },
    {
      "inputs": [
        {
          "internalType": "address payable",
          "name": "to",
          "type": "address"
        },
        {
          "internalType": "uint256",
          "name": "amount",
          "type": "uint256"
        }
      ],
      "name": "emergencyWithdraw",
      "outputs": [],
      "stateMutability": "nonpayable",
      "type": "function"
    },
    {
      "inputs": [
        {
          "internalType": "uint256",
          "name": "policyId",
          "type": "uint256"
        }
      ],
      "name": "expirePolicy",
      "outputs": [],
      "stateMutability": "nonpayable",
      "type": "function"
    },
    {
      "inputs": [
        {
          "internalType": "address",
          "name": "holder",
          "type": "address"
        }
      ],
      "name": "getHolderPolicies",
      "outputs": [
        {
          "internalType": "uint256[]",
          "name": "",
          "type": "uint256[]"
        }
      ],
      "stateMutability": "view",
      "type": "function"
    },
    {
      "inputs": [
        {
          "internalType": "address",
          "name": "organization",
          "type": "address"
        }
      ],
      "name": "getOrganizationPolicies",
      "outputs": [
        {
          "internalType": "uint256[]",
          "name": "",
          "type": "uint256[]"
        }
      ],
      "stateMutability": "view",
      "type": "function"
    },
    {
      "inputs": [
        {
          "internalType": "uint256",
          "name": "policyId",
          "type": "uint256"
        }
      ],
      "name": "getPolicy",
      "outputs": [
        {
          "internalType": "address",
          "name": "policyholder",
          "type": "address"
        },
        {
          "internalType": "address",
          "name": "organization",
          "type": "address"
        },
        {
          "internalType": "enum MissionProtection.EventType",
          "name": "eventType",
          "type": "uint8"
        },
        {
          "internalType": "string",
          "name": "eventName",
          "type": "string"
        },
        {
          "internalType": "string",
          "name": "location",
          "type": "string"
        },
        {
          "internalType": "uint256",
          "name": "startDate",
          "type": "uint256"
        },
        {
          "internalType": "uint256",
          "name": "endDate",
          "type": "uint256"
        },
        {
          "internalType": "uint256",
          "name": "coverageAmount",
          "type": "uint256"
        },
        {
          "internalType": "uint256",
          "name": "premium",
          "type": "uint256"
        },
        {
          "internalType": "enum MissionProtection.PolicyStatus",
          "name": "status",
          "type": "uint8"
        },
        {
          "internalType": "bool",
          "name": "claimSubmitted",
          "type": "bool"
        },
        {
          "internalType": "uint256",
          "name": "payoutAmount",
          "type": "uint256"
        }
      ],
      "stateMutability": "view",
      "type": "function"
    },
    {
      "inputs": [],
      "name": "getStats",
      "outputs": [
        {
          "internalType": "uint256",
          "name": "totalPolicies",
          "type": "uint256"
        },
        {
          "internalType": "uint256",
          "name": "premiumsCollected",
          "type": "uint256"
        },
        {
          "internalType": "uint256",
          "name": "claimsPaid",
          "type": "uint256"
        },
        {
          "internalType": "uint256",
          "name": "activeCoverage",
          "type": "uint256"
        }
      ],
      "stateMutability": "view",
      "type": "function"
    },
    {
      "inputs": [
        {
          "internalType": "address",
          "name": "",
          "type": "address"
        },
        {
          "internalType": "uint256",
          "name": "",
          "type": "uint256"
        }
      ],
      "name": "holderPolicies",
      "outputs": [
        {
          "internalType": "uint256",
          "name": "",
          "type": "uint256"
        }
      ],
      "stateMutability": "view",
      "type": "function"
    },
    {
      "inputs": [
        {
          "internalType": "uint256",
          "name": "policyId",
          "type": "uint256"
        }
      ],
      "name": "isPolicyActive",
      "outputs": [
        {
          "internalType": "bool",
          "name": "",
          "type": "bool"
        }
      ],
      "stateMutability": "view",
      "type": "function"
    },
    {
      "inputs": [],
      "name": "oracleRegistry",
      "outputs": [
        {
          "internalType": "contract StewardOracleRegistry",
          "name": "",
          "type": "address"
        }
      ],
      "stateMutability": "view",
      "type": "function"
    },
    {
      "inputs": [
        {
          "internalType": "address",
          "name": "",
          "type": "address"
        },
        {
          "internalType": "uint256",
          "name": "",
          "type": "uint256"
        }
      ],
      "name": "organizationPolicies",
      "outputs": [
        {
          "internalType": "uint256",
          "name": "",
          "type": "uint256"
        }
      ],
      "stateMutability": "view",
      "type": "function"
    },
    {
      "inputs": [],
      "name": "owner",
      "outputs": [
        {
          "internalType": "address",
          "name": "",
          "type": "address"
        }
      ],
      "stateMutability": "view",
      "type": "function"
    },
    {
      "inputs": [],
      "name": "pause",
      "outputs": [],
      "stateMutability": "nonpayable",
      "type": "function"
    },
    {
      "inputs": [],
      "name": "paused",
      "outputs": [
        {
          "internalType": "bool",
          "name": "",
          "type": "bool"
        }
      ],
      "stateMutability": "view",
      "type": "function"
    },
    {
      "inputs": [
        {
          "internalType": "uint256",
          "name": "",
          "type": "uint256"
        }
      ],
      "name": "policies",
      "outputs": [
        {
          "internalType": "uint256",
          "name": "policyId",
          "type": "uint256"
        },
        {
          "internalType": "address",
          "name": "policyholder",
          "type": "address"
        },
        {
          "internalType": "address",
          "name": "organization",
          "type": "address"
        },
        {
          "internalType": "enum MissionProtection.EventType",
          "name": "eventType",
          "type": "uint8"
        },
        {
          "internalType": "string",
          "name": "eventName",
          "type": "string"
        },
        {
          "internalType": "string",
          "name": "location",
          "type": "string"
        },
        {
          "internalType": "uint256",
          "name": "startDate",
          "type": "uint256"
        },
        {
          "internalType": "uint256",
          "name": "endDate",
          "type": "uint256"
        },
        {
          "internalType": "uint256",
          "name": "coverageAmount",
          "type": "uint256"
        },
        {
          "internalType": "uint256",
          "name": "premium",
          "type": "uint256"
        },
        {
          "internalType": "address",
          "name": "coverageToken",
          "type": "address"
        },
        {
          "internalType": "enum MissionProtection.PolicyStatus",
          "name": "status",
          "type": "uint8"
        },
        {
          "internalType": "uint256",
          "name": "purchaseTime",
          "type": "uint256"
        },
        {
          "internalType": "uint256",
          "name": "trigConditionId",
          "type": "uint256"
        },
        {
          "internalType": "bool",
          "name": "claimSubmitted",
          "type": "bool"
        },
        {
          "internalType": "uint256",
          "name": "claimTime",
          "type": "uint256"
        },
        {
          "internalType": "uint256",
          "name": "payoutAmount",
          "type": "uint256"
        }
      ],
      "stateMutability": "view",
      "type": "function"
    },
    {
      "inputs": [],
      "name": "policyCounter",
      "outputs": [
        {
          "internalType": "uint256",
          "name": "",
          "type": "uint256"
        }
      ],
      "stateMutability": "view",
      "type": "function"
    },
    {
      "inputs": [
        {
          "internalType": "uint256",
          "name": "",
          "type": "uint256"
        }
      ],
      "name": "policyCoverages",
      "outputs": [
        {
          "internalType": "uint256",
          "name": "tripCancellation",
          "type": "uint256"
        },
        {
          "internalType": "uint256",
          "name": "emergencyEvacuation",
          "type": "uint256"
        },
        {
          "internalType": "uint256",
          "name": "medicalExpenses",
          "type": "uint256"
        },
        {
          "internalType": "uint256",
          "name": "equipmentLoss",
          "type": "uint256"
        },
        {
          "internalType": "uint256",
          "name": "delayCompensation",
          "type": "uint256"
        }
      ],
      "stateMutability": "view",
      "type": "function"
    },
    {
      "inputs": [],
      "name": "premiumRate",
      "outputs": [
        {
          "internalType": "uint256",
          "name": "",
          "type": "uint256"
        }
      ],
      "stateMutability": "view",
      "type": "function"
    },
    {
      "inputs": [
        {
          "internalType": "uint256",
          "name": "policyId",
          "type": "uint256"
        },
        {
          "internalType": "uint256",
          "name": "approvedAmount",
          "type": "uint256"
        }
      ],
      "name": "processClaim",
      "outputs": [],
      "stateMutability": "nonpayable",
      "type": "function"
    },
    {
      "inputs": [],
      "name": "protocolFee",
      "outputs": [
        {
          "internalType": "uint256",
          "name": "",
          "type": "uint256"
        }
      ],
      "stateMutability": "view",
      "type": "function"
    },
    {
      "inputs": [
        {
          "internalType": "address",
          "name": "organization",
          "type": "address"
        },
        {
          "internalType": "enum MissionProtection.EventType",
          "name": "eventType",
          "type": "uint8"
        },
        {
          "internalType": "string",
          "name": "eventName",
          "type": "string"
        },
        {
          "internalType": "string",
          "name": "location",
          "type": "string"
        },
        {
          "internalType": "uint256",
          "name": "startDate",
          "type": "uint256"
        },
        {
          "internalType": "uint256",
          "name": "endDate",
          "type": "uint256"
        },
        {
          "internalType": "uint256",
          "name": "coverageAmount",
          "type": "uint256"
        },
        {
          "internalType": "address",
          "name": "coverageToken",
          "type": "address"
        }
      ],
      "name": "purchasePolicy",
      "outputs": [
        {
          "internalType": "uint256",
          "name": "",
          "type": "uint256"
        }
      ],
      "stateMutability": "payable",
      "type": "function"
    },
    {
      "inputs": [],
      "name": "renounceOwnership",
      "outputs": [],
      "stateMutability": "nonpayable",
      "type": "function"
    },
    {
      "inputs": [
        {
          "internalType": "uint256",
          "name": "newRate",
          "type": "uint256"
        }
      ],
      "name": "setPremiumRate",
      "outputs": [],
      "stateMutability": "nonpayable",
      "type": "function"
    },
    {
      "inputs": [
        {
          "internalType": "uint256",
          "name": "newFee",
          "type": "uint256"
        }
      ],
      "name": "setProtocolFee",
      "outputs": [],
      "stateMutability": "nonpayable",
      "type": "function"
    },
    {
      "inputs": [
        {
          "internalType": "uint256",
          "name": "policyId",
          "type": "uint256"
        },
        {
          "internalType": "uint256",
          "name": "claimAmount",
          "type": "uint256"
        },
        {
          "internalType": "string",
          "name": "claimReason",
          "type": "string"
        }
      ],
      "name": "submitClaim",
      "outputs": [],
      "stateMutability": "nonpayable",
      "type": "function"
    },
    {
      "inputs": [],
      "name": "totalActiveCoverage",
      "outputs": [
        {
          "internalType": "uint256",
          "name": "",
          "type": "uint256"
        }
      ],
      "stateMutability": "view",
      "type": "function"
    },
    {
      "inputs": [],
      "name": "totalClaimsPaid",
      "outputs": [
        {
          "internalType": "uint256",
          "name": "",
          "type": "uint256"
        }
      ],
      "stateMutability": "view",
      "type": "function"
    },
    {
      "inputs": [],
      "name": "totalPremiumsCollected",
      "outputs": [
        {
          "internalType": "uint256",
          "name": "",
          "type": "uint256"
        }
      ],
      "stateMutability": "view",
      "type": "function"
    },
    {
      "inputs": [
        {
          "internalType": "address",
          "name": "newOwner",
          "type": "address"
        }
      ],
      "name": "transferOwnership",
      "outputs": [],
      "stateMutability": "nonpayable",
      "type": "function"
    },
    {
      "inputs": [],
      "name": "trigCore",
      "outputs": [
        {
          "internalType": "contract TrigImmutableCore",
          "name": "",
          "type": "address"
        }
      ],
      "stateMutability": "view",
      "type": "function"
    },
    {
      "inputs": [],
      "name": "unpause",
      "outputs": [],
      "stateMutability": "nonpayable",
      "type": "function"
    },
    {
      "inputs": [
        {
          "internalType": "address payable",
          "name": "to",
          "type": "address"
        }
      ],
      "name": "withdrawFees",
      "outputs": [],
      "stateMutability": "nonpayable",
      "type": "function"
    },
    {
      "stateMutability": "payable",
      "type": "receive"
    }
  ],
  "bytecode": "0x60c034620001b057601f620025bb38819003918201601f191683019291906001600160401b03841183851017620001b5578160609284926040968752833981010312620001b0576200005181620001cb565b826200006060208401620001cb565b9201516001600160a01b038082169390929091849003620001b05783156200019857600080546001600160a01b031981168617825586519585939290918416907f8be0079c531659141344cd1fd0a4f28419497f9722a3daafe3b4186f6b6457e09080a36001805560c86007556064600b551692831562000156575016908115620001125760805260a052516123da9081620001e1823960805181610645015260a051818181610b0801526112710152f35b825162461bcd60e51b815260206004820152601e60248201527f496e76616c6964204f7261636c655265676973747279206164647265737300006044820152606490fd5b62461bcd60e51b815260206004820152601860248201527f496e76616c69642054726967436f7265206164647265737300000000000000006044820152606490fd5b8451631e4fbdf760e01b815260006004820152602490fd5b600080fd5b634e487b7160e01b600052604160045260246000fd5b51906001600160a01b0382168203620001b05756fe6080604052600436101561001b575b361561001957600080fd5b005b60003560e01c806306964de714611b435780631341696d14611af9578063164e68de14611a255780631f9ed1e7146111c05780632b07fce314610fc85780632f27942e14610f4d5780633037e4cd14610e6c5780633d13364814610e4e5780633dadde2014610e305780633f4ba83a14610dbe57806347daf36614610b6457806348f54f0314610b375780634bb93ab114610af2578063587f5ed714610ad45780635c975abb14610aae5780635d0040d314610a905780636532ccf514610a72578063715018a614610a19578063787dce3d146109bb5780637c9f2edf146109955780637ff8b57a146108f25780638456cb5914610890578063857d0fda146108055780638da5cb5b146107dc57806395a4dfd21461078457806395ccea67146106745780639862ced81461062f5780639a14bf66146105d7578063b0e21e8a146105b9578063b20e8bcc1461042b578063bd8afa46146103d5578063c59d48471461039e578063d3e8948314610252578063d52c1bea146102345763f2fde38b0361000e573461022f57602036600319011261022f576101ba611e10565b6101c2612378565b6001600160a01b0390811690811561021657600054826bffffffffffffffffffffffff60a01b821617600055167f8be0079c531659141344cd1fd0a4f28419497f9722a3daafe3b4186f6b6457e0600080a3005b604051631e4fbdf760e01b815260006004820152602490fd5b600080fd5b3461022f57600036600319011261022f576020600654604051908152f35b3461022f57602036600319011261022f5760043560005260026020526040600020805490600160a01b60019003600182015416906002810154916003820161029990611f63565b916102a660048201611f63565b92600582015493600683015460078401546008850154600986015491600a87015493600b88015495600c89015460ff1697600d8a015499600e01549a6040519e8f9e8f9061022093849383526020830152600160a01b6001900381166040830152606082019060a01c60ff169061031c91611e54565b608001528d0161032b91611e61565b8c810360a08e015261033c91611e61565b60c08c019a909a5260e08b01526101008a01526101208901526001600160a01b03811661014089015261037a9061016089019060a01c60ff16611ea1565b6101808701526101a086015215156101c08501526101e08401526102008301520390f35b3461022f57600036600319011261022f576080600654600854600954600a5491604051938452602084015260408301526060820152f35b3461022f57602036600319011261022f57600435600052600260205260ff60096040600020015460a01c1660048110156104155760209060405190158152f35b634e487b7160e01b600052602160045260246000fd5b3461022f57602036600319011261022f57600435610447612334565b80600052600260205260406000209061046d60018060a01b036001840154163314612008565b60098201805460ff8160a01c1660048110156104155761048d901561204b565b600584015442101561057c5760ff60a01b1916600360a01b179055600882015461232880820291801590830490911417156105665760076127106104d79204930154600a546121be565b600a5581610512575b6040519182527f2e0cc07d3f52587a5bc8ce55ba7d84866dcbb30bd848a202fdb02cb47ce8e5fd60203393a360018055005b600080808085335af16105236120f2565b506104e05760405162461bcd60e51b81526020600482015260166024820152751499599d5b99081d1c985b9cd9995c8819985a5b195960521b6044820152606490fd5b634e487b7160e01b600052601160045260246000fd5b60405162461bcd60e51b8152602060048201526015602482015274115d995b9d08185b1c9958591e481cdd185c9d1959605a1b6044820152606490fd5b3461022f57600036600319011261022f576020600b54604051908152f35b3461022f57602036600319011261022f57600435600052600360205260a06040600020805490600181015490600281015460046003830154920154926040519485526020850152604084015260608301526080820152f35b3461022f57600036600319011261022f576040517f00000000000000000000000000000000000000000000000000000000000000006001600160a01b03168152602090f35b3461022f57604036600319011261022f5761068d611e10565b60243590610699612378565b60ff60005460a01c161561074e576001600160a01b03166106bb811515612098565b47821161071257600080809381935af16106d36120f2565b50156106db57005b60405162461bcd60e51b815260206004820152600f60248201526e151c985b9cd9995c8819985a5b1959608a1b6044820152606490fd5b60405162461bcd60e51b8152602060048201526014602482015273496e73756666696369656e742062616c616e636560601b6044820152606490fd5b60405162461bcd60e51b815260206004820152600e60248201526d135d5cdd081899481c185d5cd95960921b6044820152606490fd5b3461022f57604036600319011261022f5761079d611e10565b6001600160a01b031660009081526004602052604090208054602435919082101561022f576020916107ce91611e26565b90546040519160031b1c8152f35b3461022f57600036600319011261022f576000546040516001600160a01b039091168152602090f35b3461022f5760208060031936011261022f576001600160a01b03610827611e10565b1660005260046020526040600020906040519081602084549182815201936000526020600020916000905b828210610879576108758561086981890382611f41565b60405191829182611eae565b0390f35b835486529485019460019384019390910190610852565b3461022f57600036600319011261022f576108a9612378565b6108b1612357565b6000805460ff60a01b1916600160a01b1790556040513381527f62e78cea01bee320cd4e420270b5ea74000d11b0c9f74754ebdbfc544b05a25890602090a1005b3461022f57602036600319011261022f5760043561090e612378565b80151580610989575b156109555760407ff56f6dde6ba5bd1383a94fe68dc507dd52d3bc1f5b0b400ddca66c8645dd194291600754908060075582519182526020820152a1005b60405162461bcd60e51b815260206004820152600c60248201526b496e76616c6964207261746560a01b6044820152606490fd5b506103e8811115610917565b3461022f57602036600319011261022f5760206109b36004356121cb565b604051908152f35b3461022f57602036600319011261022f576004356109d7612378565b6101f481116109e557600b55005b60405162461bcd60e51b815260206004820152600c60248201526b08ccaca40e8dede40d0d2ced60a31b6044820152606490fd5b3461022f57600036600319011261022f57610a32612378565b600080546001600160a01b0319811682556001600160a01b03167f8be0079c531659141344cd1fd0a4f28419497f9722a3daafe3b4186f6b6457e08280a3005b3461022f57600036600319011261022f576020600954604051908152f35b3461022f57600036600319011261022f576020600754604051908152f35b3461022f57600036600319011261022f57602060ff60005460a01c166040519015158152f35b3461022f57600036600319011261022f576020600c54604051908152f35b3461022f57600036600319011261022f576040517f00000000000000000000000000000000000000000000000000000000000000006001600160a01b03168152602090f35b3461022f57602036600319011261022f576020612710610b5b6007546004356121ab565b04604051908152f35b3461022f57604036600319011261022f5760248035600435610b84612378565b610b8c612334565b80600052602060028152604060002060ff600c8201541615610d85576009810180549060ff8260a01c166004811015610d7057610bc9901561204b565b8515610d2c57600783019182548711610cf557864710610cb15760ff60a01b1916600160a01b179055600e820185905560095460019291610c1b91610c0f90889061208b565b60095554600a546121be565b600a550160018060a01b0390600080808088868654165af1610c3b6120f2565b5015610c74575460405194855216927faf3c8fdd75d667f71d36d7840b8ef9086c516c9b047ad6a83a5a66151342123a9190a360018055005b60405162461bcd60e51b8152600481018490526016818801527514185e5bdd5d081d1c985b9cd9995c8819985a5b195960521b6044820152606490fd5b60405162461bcd60e51b815260048101869052601d818a01527f496e73756666696369656e7420636f6e74726163742062616c616e63650000006044820152606490fd5b60405162461bcd60e51b8152600481018690526010818a01526f4578636565647320636f76657261676560801b6044820152606490fd5b60405162461bcd60e51b815260048101859052601b818901527f417070726f76656420616d6f756e74206d757374206265203e203000000000006044820152606490fd5b87634e487b7160e01b60005260216004526000fd5b60405162461bcd60e51b81526004810183905260128187015271139bc818db185a5b481cdd589b5a5d1d195960721b6044820152606490fd5b3461022f57600036600319011261022f57610dd7612378565b60005460ff8160a01c1615610e1e5760ff60a01b19166000556040513381527f5db9ee0a495bf2e6ff9c91a7834c1ba4fdd244a5e8aa4e537bd38aeae4b073aa90602090a1005b604051638dfc202b60e01b8152600490fd5b3461022f57600036600319011261022f576020600854604051908152f35b3461022f57600036600319011261022f576020600a54604051908152f35b3461022f57602036600319011261022f576004358060005260026020526040600020600981019081549060ff8260a01c16600481101561041557610eb0901561204b565b600681015462278d00810180911161056657421115610f165760ff60a01b19909116600160a11b1790915560070154600a54610eec91906121be565b600a557fb22aa541487fc93d989bb5b17d1e3a967f649c4979cfd658c0849e070ae0dca0600080a2005b60405162461bcd60e51b815260206004820152600f60248201526e139bdd08195e1c1a5c9959081e595d608a1b6044820152606490fd5b3461022f5760208060031936011261022f576001600160a01b03610f6f611e10565b1660005260056020526040600020906040519081602084549182815201936000526020600020916000905b828210610fb1576108758561086981890382611f41565b835486529485019460019384019390910190610f9a565b3461022f57602036600319011261022f5760043560005260026020526040600020600e60405191610ff883611f24565b8054835260018101546001600160a01b039081166020850152600282015490811660408501526110319060a01c60ff1660608501612122565b61103d60038201611f63565b608084015261104e60048201611f63565b60a0840152600581015460c0840152600681015460e0840152600781015461010084015260088101546101208401526110a460ff600983015460018060a01b03811661014087015260a01c166101608501612165565b600a810154610180840152600b8101546101a0840152600c81015460ff1615156101c0840152600d8101546101e084015201546102008201526020810151604082015160608301516001600160a01b0391821693919092169160058110156104155760808201519160a08101519260c08201519360e08301516101008401519061012085015192610160860151946004861015610415576101c08701511515966102000151976040519b8c9b8c5260208c015260408b0161116491611e54565b60608a0161018090526101808a0161117b91611e61565b89810360808b015261118c91611e61565b9660a089015260c088015260e087015261010086015261012085016111b091611ea1565b6101408401526101608301520390f35b61010036600319011261022f576111d5611e10565b6005602435101561022f5760443567ffffffffffffffff811161022f57611200903690600401611de2565b919060643567ffffffffffffffff811161022f57611222903690600401611de2565b92909160e4356001600160a01b038116900361022f57611240612334565b611248612357565b604051634efeb53b60e11b81526001600160a01b038381166004830152602090829060249082907f0000000000000000000000000000000000000000000000000000000000000000165afa908115611a19576000916119de575b5015611999574260843511156119545760843560a435111561190f5760c435156118ca57841561188f578315611856576127106112e360075460c4356121ab565b0492833403611811576006549460001986146105665761134261134e9360018801600655604051986113148a611f24565b888a523360208b01526001600160a01b03871660408b015261133b60243560608c01612122565b369161212e565b6080880152369161212e565b60a085015260843560c085015260a43560e085015260c4356101008501528161012085015260018060a01b0360e4351661014085015260006101608501524261018085015260006101a085015260006101c085015260006101e085015260006102008501528260005260026020526040600020845181556001810160018060a01b036020870151166bffffffffffffffffffffffff60a01b82541617905560018060a01b0360408601511660028201549060608701516005811015610415576001600160a81b03199092161760a09190911b60ff60a01b16176002820155608085015180519067ffffffffffffffff821161172b5781906114526003850154611eea565b601f81116117be575b50602090601f831160011461174c57600092611741575b50508160011b916000199060031b1c19161760038201555b60a085015180519067ffffffffffffffff821161172b5781906114b06004850154611eea565b601f81116116d8575b50602090601f83116001146116665760009261165b575b50508160011b916000199060031b1c19161760048201555b60c0850151600582015560e085015160068201556101008501516007820155610120850151600882015560018060a01b036101408601511660098201549561016081015190600482101561041557602097600e936102009360ff60a01b9060a01b16916affffffffffffffffffffff60a81b1617176009850155610180810151600a8501556101a0810151600b850155600c84016101c0820151151560ff801983541691161790556101e0810151600d850155015191015533600052600484526115b6836040600020612171565b60018060a01b038116600052600584526115d4836040600020612171565b6115ef6127106115e6600b54856121ab565b04600c5461208b565b600c556115fe8260085461208b565b60085561160f60c435600a5461208b565b600a556040519160c43583528483015260018060a01b031690827fe7ec528f41adad40ce21f95ed2f950475d902a9449764b13f04eb3bf39a5a07c60403393a460018055604051908152f35b0151905087806114d0565b9250600484016000526020600020906000935b601f19841685106116bd576001945083601f198116106116a4575b505050811b0160048201556114e8565b015160001960f88460031b161c19169055878080611694565b81810151835560209485019460019093019290910190611679565b909150600484016000526020600020601f840160051c810160208510611724575b90849392915b601f830160051c820181106117155750506114b9565b600081558594506001016116ff565b50806116f9565b634e487b7160e01b600052604160045260246000fd5b015190508780611472565b9250600384016000526020600020906000935b601f19841685106117a3576001945083601f1981161061178a575b505050811b01600382015561148a565b015160001960f88460031b161c1916905587808061177a565b8181015183556020948501946001909301929091019061175f565b909150600384016000526020600020601f840160051c81016020851061180a575b90849392915b601f830160051c820181106117fb57505061145b565b600081558594506001016117e5565b50806117df565b60405162461bcd60e51b815260206004820152601860248201527f496e636f7272656374207072656d69756d20616d6f756e7400000000000000006044820152606490fd5b60405162461bcd60e51b8152602060048201526011602482015270131bd8d85d1a5bdb881c995c5d5a5c9959607a1b6044820152606490fd5b60405162461bcd60e51b8152602060048201526013602482015272115d995b9d081b985b59481c995c5d5a5c9959606a1b6044820152606490fd5b60405162461bcd60e51b815260206004820152601b60248201527f436f76657261676520616d6f756e74206d757374206265203e203000000000006044820152606490fd5b60405162461bcd60e51b815260206004820152601c60248201527f456e642064617465206d757374206265206166746572207374617274000000006044820152606490fd5b60405162461bcd60e51b815260206004820152601c60248201527f53746172742064617465206d75737420626520696e20667574757265000000006044820152606490fd5b60405162461bcd60e51b815260206004820152601960248201527f4f7267616e697a6174696f6e206e6f74207665726966696564000000000000006044820152606490fd5b90506020813d602011611a11575b816119f960209383611f41565b8101031261022f5751801515810361022f57866112a2565b3d91506119ec565b6040513d6000823e3d90fd5b3461022f57602036600319011261022f57611a3e611e10565b611a46612378565b6001600160a01b0316611a5a811515612098565b600c54908115611abe576000808093819382600c555af1611a796120f2565b5015611a8157005b60405162461bcd60e51b8152602060048201526015602482015274119959481dda5d1a191c985dd85b0819985a5b1959605a1b6044820152606490fd5b60405162461bcd60e51b81526020600482015260136024820152724e6f206665657320746f20776974686472617760681b6044820152606490fd5b3461022f57604036600319011261022f57611b12611e10565b6001600160a01b031660009081526005602052604090208054602435919082101561022f576020916107ce91611e26565b3461022f57606036600319011261022f57602480356004356044803567ffffffffffffffff811161022f57611b7c903690600401611de2565b9050611b86612334565b611b8e612357565b8260005260209160028352604060002091611bb660018060a01b036001850154163314612008565b60ff600984015460a01c166004811015610d7057611bd4901561204b565b600c83019182549160ff8316611d9f578715611d5c5760078501548811611d205760058501544210611ce957600685015462278d008101809111611cd4574211611c9a5715611c60575060ff1916600117905542600d9091015560405192835233927f01bc0f9d4f6b0c66e2bda5f433d9760d7eb48e89b73ffea517a7ba5e4fe0657d9190a360018055005b847410db185a5b481c99585cdbdb881c995c5d5a5c9959605a1b60649260158b6040519462461bcd60e51b86526004860152840152820152fd5b60405162461bcd60e51b8152600481018790526014818b01527310db185a5b481c195c9a5bd908195e1c1a5c995960621b81840152606490fd5b89634e487b7160e01b60005260116004526000fd5b60405162461bcd60e51b8152600481018790526011818b015270115d995b9d081b9bdd081cdd185c9d1959607a1b81840152606490fd5b60405162461bcd60e51b8152600481018790526016818b015275436c61696d206578636565647320636f76657261676560501b81840152606490fd5b60405162461bcd60e51b8152600481018790526018818b01527f436c61696d20616d6f756e74206d757374206265203e2030000000000000000081840152606490fd5b60405162461bcd60e51b8152600481018790526017818b01527f436c61696d20616c7265616479207375626d697474656400000000000000000081840152606490fd5b9181601f8401121561022f5782359167ffffffffffffffff831161022f576020838186019501011161022f57565b600435906001600160a01b038216820361022f57565b8054821015611e3e5760005260206000200190600090565b634e487b7160e01b600052603260045260246000fd5b9060058210156104155752565b919082519283825260005b848110611e8d575050826000602080949584010152601f8019910116010190565b602081830181015184830182015201611e6c565b9060048210156104155752565b602090602060408183019282815285518094520193019160005b828110611ed6575050505090565b835185529381019392810192600101611ec8565b90600182811c92168015611f1a575b6020831014611f0457565b634e487b7160e01b600052602260045260246000fd5b91607f1691611ef9565b610220810190811067ffffffffffffffff82111761172b57604052565b90601f8019910116810190811067ffffffffffffffff82111761172b57604052565b90604051918260008254611f7681611eea565b90818452602094600191600181169081600014611fe65750600114611fa7575b505050611fa592500383611f41565b565b600090815285812095935091905b818310611fce575050611fa59350820101388080611f96565b85548884018501529485019487945091830191611fb5565b92505050611fa594925060ff191682840152151560051b820101388080611f96565b1561200f57565b60405162461bcd60e51b81526020600482015260146024820152732737ba103a3432903837b634b1bcb437b63232b960611b6044820152606490fd5b1561205257565b60405162461bcd60e51b8152602060048201526011602482015270506f6c696379206e6f742061637469766560781b6044820152606490fd5b9190820180921161056657565b1561209f57565b60405162461bcd60e51b815260206004820152600f60248201526e496e76616c6964206164647265737360881b6044820152606490fd5b67ffffffffffffffff811161172b57601f01601f191660200190565b3d1561211d573d90612103826120d6565b916121116040519384611f41565b82523d6000602084013e565b606090565b60058210156104155752565b92919261213a826120d6565b916121486040519384611f41565b82948184528183011161022f578281602093846000960137010152565b60048210156104155752565b80546801000000000000000081101561172b5761219391600182018155611e26565b819291549060031b91821b91600019901b1916179055565b8181029291811591840414171561056657565b9190820391821161056657565b60009081526002602052604081206040516121e581611f24565b8154815260018201546001600160a01b0390811660208301526002830154808216604084015261221e9060a01c60ff1660608401612122565b61222a60038401611f63565b608083015261223b60048401611f63565b60a083015260058301549160c08101928352600684015460e08201526007840154610100820152610200600e6008860154956101208401968752600981015494851661014085015261229860ff61016086019660a01c1686612165565b600a810154610180850152600b8101546101a085015260ff600c8201541615156101c0850152600d8101546101e085015201549101525160048110156123205761231b5751421015612317575190612328918281029281840414901517156123035750612710900490565b634e487b7160e01b81526011600452602490fd5b5090565b505090565b634e487b7160e01b84526021600452602484fd5b600260015414612345576002600155565b604051633ee5aeb560e01b8152600490fd5b60ff60005460a01c1661236657565b60405163d93c066560e01b8152600490fd5b6000546001600160a01b0316330361238c57565b60405163118cdaa760e01b8152336004820152602490fdfea2646970667358221220fbdabd8d9fad783afa74cce7c2b55d608c0102e078cd645dbde6088f495b690264736f6c63430008160033",
  "linkReferences": {},
  "deployedLinkReferences": {}
}