{
  "_format": "hh-sol-artifact-1",
  "contractName": "TrigImmutableCore",
  "sourceName": "contracts/core/TrigImmutableCore.sol",
  "abi": [
    {
      "inputs": [
        {
          "internalType": "address",
          "name": "initialOwner",
          "type": "address"
        }
      ],
      "stateMutability": "nonpayable",
      "type": "constructor"
    },
    {
      "inputs": [],
      "name": "EnforcedPause",
      "type": "error"
    },
    {
      "inputs": [],
      "name": "ExpectedPause",
      "type": "error"
    },
    {
      "inputs": [
        {
          "internalType": "address",
          "name": "owner",
          "type": "address"
        }
      ],
      "name": "OwnableInvalidOwner",
      "type": "error"
    },
    {
      "inputs": [
        {
          "internalType": "address",
          "name": "account",
          "type": "address"
        }
      ],
      "name": "OwnableUnauthorizedAccount",
      "type": "error"
    },
    {
      "inputs": [],
      "name": "ReentrancyGuardReentrantCall",
      "type": "error"
    },
    {
      "inputs": [
        {
          "internalType": "address",
          "name": "token",
          "type": "address"
        }
      ],
      "name": "SafeERC20FailedOperation",
      "type": "error"
    },
    {
      "anonymous": false,
      "inputs": [
        {
          "indexed": true,
          "internalType": "uint256",
          "name": "conditionId",
          "type": "uint256"
        },
        {
          "indexed": true,
          "internalType": "address",
          "name": "approver",
          "type": "address"
        }
      ],
      "name": "ApprovalAdded",
      "type": "event"
    },
    {
      "anonymous": false,
      "inputs": [
        {
          "indexed": true,
          "internalType": "uint256",
          "name": "conditionId",
          "type": "uint256"
        },
        {
          "indexed": true,
          "internalType": "address",
          "name": "creator",
          "type": "address"
        }
      ],
      "name": "ConditionCancelled",
      "type": "event"
    },
    {
      "anonymous": false,
      "inputs": [
        {
          "indexed": true,
          "internalType": "uint256",
          "name": "conditionId",
          "type": "uint256"
        },
        {
          "indexed": true,
          "internalType": "address",
          "name": "creator",
          "type": "address"
        },
        {
          "indexed": false,
          "internalType": "enum TrigImmutableCore.ConditionType",
          "name": "conditionType",
          "type": "uint8"
        },
        {
          "indexed": false,
          "internalType": "uint256",
          "name": "payoutAmount",
          "type": "uint256"
        }
      ],
      "name": "ConditionCreated",
      "type": "event"
    },
    {
      "anonymous": false,
      "inputs": [
        {
          "indexed": true,
          "internalType": "uint256",
          "name": "conditionId",
          "type": "uint256"
        },
        {
          "indexed": true,
          "internalType": "address",
          "name": "executor",
          "type": "address"
        },
        {
          "indexed": false,
          "internalType": "uint256",
          "name": "payoutAmount",
          "type": "uint256"
        }
      ],
      "name": "ConditionExecuted",
      "type": "event"
    },
    {
      "anonymous": false,
      "inputs": [
        {
          "indexed": true,
          "internalType": "uint256",
          "name": "conditionId",
          "type": "uint256"
        }
      ],
      "name": "ConditionExpired",
      "type": "event"
    },
    {
      "anonymous": false,
      "inputs": [
        {
          "indexed": true,
          "internalType": "address",
          "name": "previousOwner",
          "type": "address"
        },
        {
          "indexed": true,
          "internalType": "address",
          "name": "newOwner",
          "type": "address"
        }
      ],
      "name": "OwnershipTransferred",
      "type": "event"
    },
    {
      "anonymous": false,
      "inputs": [
        {
          "indexed": false,
          "internalType": "address",
          "name": "account",
          "type": "address"
        }
      ],
      "name": "Paused",
      "type": "event"
    },
    {
      "anonymous": false,
      "inputs": [
        {
          "indexed": false,
          "internalType": "address",
          "name": "account",
          "type": "address"
        }
      ],
      "name": "Unpaused",
      "type": "event"
    },
    {
      "inputs": [
        {
          "internalType": "uint256",
          "name": "conditionId",
          "type": "uint256"
        }
      ],
      "name": "addApproval",
      "outputs": [],
      "stateMutability": "nonpayable",
      "type": "function"
    },
    {
      "inputs": [
        {
          "internalType": "uint256",
          "name": "",
          "type": "uint256"
        }
      ],
      "name": "approvalCounts",
      "outputs": [
        {
          "internalType": "uint256",
          "name": "",
          "type": "uint256"
        }
      ],
      "stateMutability": "view",
      "type": "function"
    },
    {
      "inputs": [
        {
          "internalType": "uint256",
          "name": "conditionId",
          "type": "uint256"
        }
      ],
      "name": "cancelCondition",
      "outputs": [],
      "stateMutability": "nonpayable",
      "type": "function"
    },
    {
      "inputs": [
        {
          "internalType": "uint256",
          "name": "",
          "type": "uint256"
        },
        {
          "internalType": "address",
          "name": "",
          "type": "address"
        }
      ],
      "name": "conditionApprovals",
      "outputs": [
        {
          "internalType": "bool",
          "name": "",
          "type": "bool"
        }
      ],
      "stateMutability": "view",
      "type": "function"
    },
    {
      "inputs": [],
      "name": "conditionCounter",
      "outputs": [
        {
          "internalType": "uint256",
          "name": "",
          "type": "uint256"
        }
      ],
      "stateMutability": "view",
      "type": "function"
    },
    {
      "inputs": [
        {
          "internalType": "uint256",
          "name": "",
          "type": "uint256"
        }
      ],
      "name": "conditions",
      "outputs": [
        {
          "internalType": "uint256",
          "name": "conditionId",
          "type": "uint256"
        },
        {
          "internalType": "address",
          "name": "creator",
          "type": "address"
        },
        {
          "internalType": "uint256",
          "name": "createdAt",
          "type": "uint256"
        },
        {
          "internalType": "enum TrigImmutableCore.ConditionType",
          "name": "conditionType",
          "type": "uint8"
        },
        {
          "internalType": "bytes",
          "name": "triggerData",
          "type": "bytes"
        },
        {
          "internalType": "bytes32",
          "name": "triggerHash",
          "type": "bytes32"
        },
        {
          "internalType": "uint256",
          "name": "premiumPaid",
          "type": "uint256"
        },
        {
          "internalType": "uint256",
          "name": "payoutAmount",
          "type": "uint256"
        },
        {
          "internalType": "address",
          "name": "payoutToken",
          "type": "address"
        },
        {
          "internalType": "enum TrigImmutableCore.ConditionStatus",
          "name": "status",
          "type": "uint8"
        },
        {
          "internalType": "uint256",
          "name": "executedAt",
          "type": "uint256"
        },
        {
          "internalType": "address",
          "name": "executor",
          "type": "address"
        },
        {
          "internalType": "uint256",
          "name": "expirationTime",
          "type": "uint256"
        }
      ],
      "stateMutability": "view",
      "type": "function"
    },
    {
      "inputs": [
        {
          "internalType": "enum TrigImmutableCore.ConditionType",
          "name": "conditionType",
          "type": "uint8"
        },
        {
          "internalType": "bytes",
          "name": "triggerData",
          "type": "bytes"
        },
        {
          "internalType": "uint256",
          "name": "payoutAmount",
          "type": "uint256"
        },
        {
          "internalType": "address",
          "name": "payoutToken",
          "type": "address"
        },
        {
          "internalType": "uint256",
          "name": "expirationTime",
          "type": "uint256"
        }
      ],
      "name": "createCondition",
      "outputs": [
        {
          "internalType": "uint256",
          "name": "conditionId",
          "type": "uint256"
        }
      ],
      "stateMutability": "payable",
      "type": "function"
    },
    {
      "inputs": [
        {
          "internalType": "address",
          "name": "token",
          "type": "address"
        },
        {
          "internalType": "uint256",
          "name": "amount",
          "type": "uint256"
        }
      ],
      "name": "emergencyWithdraw",
      "outputs": [],
      "stateMutability": "nonpayable",
      "type": "function"
    },
    {
      "inputs": [
        {
          "internalType": "uint256",
          "name": "conditionId",
          "type": "uint256"
        }
      ],
      "name": "executeCondition",
      "outputs": [],
      "stateMutability": "nonpayable",
      "type": "function"
    },
    {
      "inputs": [
        {
          "internalType": "uint256",
          "name": "conditionId",
          "type": "uint256"
        }
      ],
      "name": "getCondition",
      "outputs": [
        {
          "components": [
            {
              "internalType": "uint256",
              "name": "conditionId",
              "type": "uint256"
            },
            {
              "internalType": "address",
              "name": "creator",
              "type": "address"
            },
            {
              "internalType": "uint256",
              "name": "createdAt",
              "type": "uint256"
            },
            {
              "internalType": "enum TrigImmutableCore.ConditionType",
              "name": "conditionType",
              "type": "uint8"
            },
            {
              "internalType": "bytes",
              "name": "triggerData",
              "type": "bytes"
            },
            {
              "internalType": "bytes32",
              "name": "triggerHash",
              "type": "bytes32"
            },
            {
              "internalType": "uint256",
              "name": "premiumPaid",
              "type": "uint256"
            },
            {
              "internalType": "uint256",
              "name": "payoutAmount",
              "type": "uint256"
            },
            {
              "internalType": "address",
              "name": "payoutToken",
              "type": "address"
            },
            {
              "internalType": "enum TrigImmutableCore.ConditionStatus",
              "name": "status",
              "type": "uint8"
            },
            {
              "internalType": "uint256",
              "name": "executedAt",
              "type": "uint256"
            },
            {
              "internalType": "address",
              "name": "executor",
              "type": "address"
            },
            {
              "internalType": "uint256",
              "name": "expirationTime",
              "type": "uint256"
            }
          ],
          "internalType": "struct TrigImmutableCore.ImmutableCondition",
          "name": "condition",
          "type": "tuple"
        }
      ],
      "stateMutability": "view",
      "type": "function"
    },
    {
      "inputs": [
        {
          "internalType": "uint256",
          "name": "conditionId",
          "type": "uint256"
        }
      ],
      "name": "getConditionStatus",
      "outputs": [
        {
          "internalType": "enum TrigImmutableCore.ConditionStatus",
          "name": "status",
          "type": "uint8"
        }
      ],
      "stateMutability": "view",
      "type": "function"
    },
    {
      "inputs": [
        {
          "internalType": "address",
          "name": "user",
          "type": "address"
        }
      ],
      "name": "getUserConditions",
      "outputs": [
        {
          "internalType": "uint256[]",
          "name": "conditionIds",
          "type": "uint256[]"
        }
      ],
      "stateMutability": "view",
      "type": "function"
    },
    {
      "inputs": [
        {
          "internalType": "uint256",
          "name": "conditionId",
          "type": "uint256"
        }
      ],
      "name": "isConditionMet",
      "outputs": [
        {
          "internalType": "bool",
          "name": "met",
          "type": "bool"
        }
      ],
      "stateMutability": "view",
      "type": "function"
    },
    {
      "inputs": [
        {
          "internalType": "uint256",
          "name": "conditionId",
          "type": "uint256"
        }
      ],
      "name": "markExpired",
      "outputs": [],
      "stateMutability": "nonpayable",
      "type": "function"
    },
    {
      "inputs": [],
      "name": "owner",
      "outputs": [
        {
          "internalType": "address",
          "name": "",
          "type": "address"
        }
      ],
      "stateMutability": "view",
      "type": "function"
    },
    {
      "inputs": [],
      "name": "pause",
      "outputs": [],
      "stateMutability": "nonpayable",
      "type": "function"
    },
    {
      "inputs": [],
      "name": "paused",
      "outputs": [
        {
          "internalType": "bool",
          "name": "",
          "type": "bool"
        }
      ],
      "stateMutability": "view",
      "type": "function"
    },
    {
      "inputs": [],
      "name": "renounceOwnership",
      "outputs": [],
      "stateMutability": "nonpayable",
      "type": "function"
    },
    {
      "inputs": [
        {
          "internalType": "address",
          "name": "newOwner",
          "type": "address"
        }
      ],
      "name": "transferOwnership",
      "outputs": [],
      "stateMutability": "nonpayable",
      "type": "function"
    },
    {
      "inputs": [],
      "name": "unpause",
      "outputs": [],
      "stateMutability": "nonpayable",
      "type": "function"
    },
    {
      "inputs": [
        {
          "internalType": "address",
          "name": "",
          "type": "address"
        },
        {
          "internalType": "uint256",
          "name": "",
          "type": "uint256"
        }
      ],
      "name": "userConditions",
      "outputs": [
        {
          "internalType": "uint256",
          "name": "",
          "type": "uint256"
        }
      ],
      "stateMutability": "view",
      "type": "function"
    },
    {
      "stateMutability": "payable",
      "type": "receive"
    }
  ],
  "bytecode": "0x6080346100bf57601f611bf438819003918201601f19168301916001600160401b038311848410176100c4578084926020946040528339810103126100bf57516001600160a01b0390818116908190036100bf5780156100a657600080546001600160a01b03198116831782556040519316907f8be0079c531659141344cd1fd0a4f28419497f9722a3daafe3b4186f6b6457e09080a360018055611b1990816100db8239f35b604051631e4fbdf760e01b815260006004820152602490fd5b600080fd5b634e487b7160e01b600052604160045260246000fdfe6080604052600436101561001b575b361561001957600080fd5b005b60003560e01c8062e8edb51461128757806307782af51461122f57806326c50007146111315780633d4bc4ba146111135780633f4ba83a146110a15780634d568c36146110755780635c975abb1461104f578063715018a614610ff657806373d1141514610f4257806377fd00c514610e3f5780637bf212f814610c2d5780638456cb5914610bcb5780638da5cb5b14610ba257806395ccea6714610ac0578063bc4925fc1461099d578063be5631041461095f578063bf6a64c81461090d578063c1b8525114610702578063cf29558c146106da578063d104d149146101945763f2fde38b0361000e573461018f57602036600319011261018f5761011f61146b565b610127611a4f565b6001600160a01b0390811690811561017657600054826001600160601b0360a01b821617600055167f8be0079c531659141344cd1fd0a4f28419497f9722a3daafe3b4186f6b6457e0600080a3005b604051631e4fbdf760e01b815260006004820152602490fd5b600080fd5b60a036600319011261018f5760048035101561018f5760243567ffffffffffffffff811161018f573660238201121561018f5767ffffffffffffffff81600401351161018f5736602482600401358301011161018f576064803591906001600160a01b038316830361018f57610208611758565b610210611779565b604435156106a357426084351115610661576001600160a01b0383166106055760443534106105cb57505b60025491610248836116fc565b60025561025d36836004013560248501611721565b602081519101206102a660405193610274856114e9565b85855233602086015242604086015261028e6004356115cd565b60043560608601523690602481600401359101611721565b608084015260a08301523460c083015260443560e083015260018060a01b0316610100820152600061012082015260006101408201526000610160820152608435610180820152816000526003602052604060002090805182556001820160018060a01b036020830151166001600160601b0360a01b8254161790556040810151600283015560038201606082015161033e816115cd565b610347816115cd565b60ff80198354169116179055608081015180519067ffffffffffffffff82116104ed5761037760048501546114af565b601f8111610584575b50602090601f831160011461050e579180600b949261018094600092610503575b50508160011b916000199060031b1c19161760048501555b60a0810151600585015560c0810151600685015560e081015160078501556008840160018060a01b03610100830151168154906101208401516103fb816115cd565b610404816115cd565b60ff60a01b9060a01b16916affffffffffffffffffffff60a81b16171790556101408101516009850155600a840160018060a01b03610160830151166001600160601b0360a01b8254161790550151910155336000526004602052604060002090815491680100000000000000008310156104ed578261048b916001602095018155611481565b81549060031b9083821b91600019901b19161790556040516104ae6004356115cd565b600435815260443583820152817f5255a3ef8e420252fdcdf7f86af9110031f2b1db75e200a5178d689dc2431f7560403393a360018055604051908152f35b634e487b7160e01b600052604160045260246000fd5b0151905087806103a1565b906004850160005260206000209160005b601f198516811061056c575092600b94926001926101809583601f19811610610553575b505050811b0160048501556103b9565b015160001960f88460031b161c19169055878080610543565b9192602060018192868501518155019401920161051f565b600485016000526020600020601f840160051c8101602085106105c4575b601f830160051c820181106105b8575050610380565b600081556001016105a2565b50806105a2565b60405162461bcd60e51b8152602060048201526015602482015274125b9cdd59999a58da595b9d08115512081cd95b9d605a1b6044820152fd5b604051906323b872dd60e01b602083015233602483015230604483015260443581830152815260a081019080821067ffffffffffffffff8311176104ed5760409190915261065c906001600160a01b038416611a7b565b61023b565b60405162461bcd60e51b815260206004820152601960248201527f45787069726174696f6e206d75737420626520667574757265000000000000006044820152fd5b60405162461bcd60e51b815260206004820152601260248201527105061796f7574206d757374206265203e20360741b6044820152fd5b3461018f57602036600319011261018f5760206106f86004356117b0565b6040519015158152f35b3461018f5760208060031936011261018f57600435908160005260038152600360406000206107fc604051610736816114e9565b8254815260018060a01b0390816001850154168682015260028401546040820152610180600b60ff8787015416956060840196610772816115cd565b875261078060048201611528565b6080850152600581015460a0850152600681015460c0850152600781015460e085015260ff600882015486811661010087015260a01c16946107c1866115cd565b856101208601526009820154610140860152600a8201541661016085015201549101526107ed816115cd565b6107f6816115cd565b1561162d565b51610806816115cd565b61080f816115cd565b036108d0578160005260058152604060002033600052815260ff6040600020541661089957600690826000526005815260406000203360005281526040600020600160ff198254161790558260005252604060002061086e81546116fc565b905533907fcb6adb17d1a329c9110e1ef67292ae765fe7dbcb6158e9f4614cbea089a953b3600080a3005b6064906040519062461bcd60e51b82526004820152601060248201526f105b1c9958591e48185c1c1c9bdd995960821b6044820152fd5b6064906040519062461bcd60e51b8252600482015260166024820152752737ba1036bab63a34b9b4b39031b7b73234ba34b7b760511b6044820152fd5b3461018f57604036600319011261018f576024356001600160a01b0381169081900361018f576004356000526005602052604060002090600052602052602060ff604060002054166040519015158152f35b3461018f57602036600319011261018f576004356000526003602052602060ff60086040600020015460a01c1660405190610999816115cd565b8152f35b3461018f57602036600319011261018f576004356109b9611779565b60008181526003602052604090206001810180546001600160a01b0391908216338103610a7b5782600885018054906109fb60ff8360a01c166107f6816115cd565b60ff60a01b198216600360a01b179055169081610a64575050600080610a37946007829583955416910154905af1610a3161168c565b506116bc565b33907ffcf6a049684f168aa20138b94c9db3db2f47e89b19e0c17753f1c339ca934e21600080a360018055005b915091506007610a76930154916119ff565b610a37565b60405162461bcd60e51b815260206004820152601760248201527f4f6e6c792063726561746f722063616e2063616e63656c0000000000000000006044820152606490fd5b3461018f57604036600319011261018f57610ad961146b565b60243590610ae5611a4f565b60005460ff8160a01c1615610b6c576001600160a01b039182169081610b60575050600080809381938254165af1610b1b61168c565b5015610b2357005b60405162461bcd60e51b8152602060048201526015602482015274115512081dda5d1a191c985dd85b0819985a5b1959605a1b6044820152606490fd5b610019939216906119ff565b60405162461bcd60e51b815260206004820152600e60248201526d135d5cdd081899481c185d5cd95960921b6044820152606490fd5b3461018f57600036600319011261018f576000546040516001600160a01b039091168152602090f35b3461018f57600036600319011261018f57610be4611a4f565b610bec611758565b6000805460ff60a01b1916600160a01b1790556040513381527f62e78cea01bee320cd4e420270b5ea74000d11b0c9f74754ebdbfc544b05a25890602090a1005b3461018f57602036600319011261018f576000610180604051610c4f816114e9565b828152826020820152826040820152826060820152606060808201528260a08201528260c08201528260e082015282610100820152826101208201528261014082015282610160820152015260043560005260036020526040600020600b60405191610cba836114e9565b8054835260018101546001600160a01b0316602084015260028101546040840152600381015460ff16610cec816115cd565b6060840152610cfd60048201611528565b6080840152600581015460a0840152600681015460c0840152600781015460e084015260ff600882015460018060a01b03811661010086015260a01c16610d43816115cd565b610120840152600981015461014084015260018060a01b03600a8201541661016084015201546101808201526040518091602082528051602083015260018060a01b036020820151166040830152604081015160608301526060810151610da9816115cd565b6080830152610180610dcc60808301516101a060a08601526101c08501906115ed565b9160a081015160c085015260c081015160e085015260e081015161010085015260018060a01b0361010082015116610120850152610120810151610e0f816115cd565b61014085015261014081015161016085015260018060a01b03610160820151168285015201516101a08301520390f35b3461018f57602036600319011261018f5760043580600052600360205260406000206008810190815491610e7c60ff8460a01c166107f6816115cd565b600b820154421115610f0b5760ff60a01b198316600160a11b1790556001600160a01b0391821680610ef0575060008080836007610ec99660018497015416910154905af1610a3161168c565b7f35ed3565fa8894f073f725eb366ddbcb07787f238b9c549f3f430890f0b5b70b600080a2005b906007610f0693600183015416910154916119ff565b610ec9565b60405162461bcd60e51b815260206004820152600f60248201526e139bdd081e595d08195e1c1a5c9959608a1b6044820152606490fd5b3461018f5760208060031936011261018f576001600160a01b03610f6461146b565b1660005260048152604060002060405190818382549182815201908192600052846000209060005b86828210610fe2578686610fa282880383611506565b604051928392818401908285525180915260408401929160005b828110610fcb57505050500390f35b835185528695509381019392810192600101610fbc565b835485529093019260019283019201610f8c565b3461018f57600036600319011261018f5761100f611a4f565b600080546001600160a01b0319811682556001600160a01b03167f8be0079c531659141344cd1fd0a4f28419497f9722a3daafe3b4186f6b6457e08280a3005b3461018f57600036600319011261018f57602060ff60005460a01c166040519015158152f35b3461018f57602036600319011261018f5760043560005260066020526020604060002054604051908152f35b3461018f57600036600319011261018f576110ba611a4f565b60005460ff8160a01c16156111015760ff60a01b19166000556040513381527f5db9ee0a495bf2e6ff9c91a7834c1ba4fdd244a5e8aa4e537bd38aeae4b073aa90602090a1005b604051638dfc202b60e01b8152600490fd5b3461018f57600036600319011261018f576020600254604051908152f35b3461018f57602036600319011261018f576004356000526003602052604080600020805460018060a01b036001830154169160028101549060ff60038201541661117d60048301611528565b9360058301549460068401546007850154906111e960088701549360ff8560a01c1695600989015497600b60018060a01b03600a8c0154169a01549a8e519e8f9e8f906101a0958252602082015201526111d6816115cd565b60608d01528060808d01528b01906115ed565b60a08a019890985260c089015260e08801526001600160a01b0316610100870152611213816115cd565b6101208601526101408501526101608401526101808301520390f35b3461018f57604036600319011261018f5761124861146b565b6001600160a01b031660009081526004602052604090208054602435919082101561018f5760209161127991611481565b90546040519160031b1c8152f35b3461018f5760208060031936011261018f576004356112a4611758565b6112ac611779565b80600052600382526040600020600881018054906112d360ff8360a01c166107f6816115cd565b600b8301544211611432576112e7846117b0565b156113f95760ff60a01b198216600160a01b179055426009830155600a820180546001600160a01b031916331790556001600160a01b03908116806113bb57506000808080936001860154166007860154905af161134361168c565b50156113805760077f055e690b4fb6f984a67fe3a6b1cc38d2c21b7e3549d70862ddf088afd9b11cfa915b0154926040519384523393a360018055005b60405162461bcd60e51b8152600481018490526013602482015272115512081d1c985b9cd9995c8819985a5b1959606a1b6044820152606490fd5b916113f47f055e690b4fb6f984a67fe3a6b1cc38d2c21b7e3549d70862ddf088afd9b11cfa9360079360018401541684840154916119ff565b61136e565b60405162461bcd60e51b815260048101869052601160248201527010dbdb991a5d1a5bdb881b9bdd081b595d607a1b6044820152606490fd5b60405162461bcd60e51b815260048101869052601160248201527010dbdb991a5d1a5bdb88195e1c1a5c9959607a1b6044820152606490fd5b600435906001600160a01b038216820361018f57565b80548210156114995760005260206000200190600090565b634e487b7160e01b600052603260045260246000fd5b90600182811c921680156114df575b60208310146114c957565b634e487b7160e01b600052602260045260246000fd5b91607f16916114be565b6101a0810190811067ffffffffffffffff8211176104ed57604052565b90601f8019910116810190811067ffffffffffffffff8211176104ed57604052565b9060405191826000825461153b816114af565b908184526020946001916001811690816000146115ab575060011461156c575b50505061156a92500383611506565b565b600090815285812095935091905b81831061159357505061156a935082010138808061155b565b8554888401850152948501948794509183019161157a565b9250505061156a94925060ff191682840152151560051b82010138808061155b565b600411156115d757565b634e487b7160e01b600052602160045260246000fd5b919082519283825260005b848110611619575050826000602080949584010152601f8019910116010190565b6020818301810151848301820152016115f8565b1561163457565b60405162461bcd60e51b8152602060048201526014602482015273436f6e646974696f6e206e6f742061637469766560601b6044820152606490fd5b67ffffffffffffffff81116104ed57601f01601f191660200190565b3d156116b7573d9061169d82611670565b916116ab6040519384611506565b82523d6000602084013e565b606090565b156116c357565b60405162461bcd60e51b8152602060048201526011602482015270115512081c99599d5b990819985a5b1959607a1b6044820152606490fd5b600019811461170b5760010190565b634e487b7160e01b600052601160045260246000fd5b92919261172d82611670565b9161173b6040519384611506565b82948184528183011161018f578281602093846000960137010152565b60ff60005460a01c1661176757565b60405163d93c066560e01b8152600490fd5b60026001541461178a576002600155565b604051633ee5aeb560e01b8152600490fd5b51906001600160a01b038216820361018f57565b6000818152602091600383526040808320918151906117ce826114e9565b8354825260018401546001600160a01b039081168784015260028501548484015260038501549092606081019160ff16611807816115cd565b8252610180600b61181a60048901611528565b9760808401988952600581015460a0850152600681015460c0850152600781015460e085015260ff600882015488811661010087015260a01c1661185d816115cd565b610120850152600981015461014085015286600a820154166101608501520154910152805161188b816115cd565b611894816115cd565b6118b65750505050519082828051810103126118b35750015142101590565b80fd5b600181516118c3816115cd565b6118cc816115cd565b036118ec5750505050519082828051810103126118b35750015143101590565b600281969496959395516118ff816115cd565b611908816115cd565b036119b157505051936060858051810103126119ad578061192a81870161179c565b936024606061193a888a0161179c565b98015187516370a0823160e01b815298831660048a0152979586928391165afa9384156119a257508193611971575b505050101590565b9091809350813d831161199b575b6119898183611506565b810103126118b3575051388080611969565b503d61197f565b51913d9150823e3d90fd5b5080fd5b600391959450959295516119c4816115cd565b6119cd816115cd565b146119d9575050505090565b939192935181818051810103126119fb57810151938252600690522054101590565b8280fd5b60405163a9059cbb60e01b60208201526001600160a01b039092166024830152604480830193909352918152608081019167ffffffffffffffff8311828410176104ed5761156a92604052611a7b565b6000546001600160a01b03163303611a6357565b60405163118cdaa760e01b8152336004820152602490fd5b906000602091828151910182855af115611ad7576000513d611ace57506001600160a01b0381163b155b611aac5750565b604051635274afe760e01b81526001600160a01b039091166004820152602490fd5b60011415611aa5565b6040513d6000823e3d90fdfea264697066735822122020f0662b21067970c2b7ceac8019953addef01747e742d68bff377404315030264736f6c63430008160033",
  "linkReferences": {},
  "deployedLinkReferences": {}
}